{
  "contractName": "TitleAccessControl",
  "abi": [
    {
      "constant": true,
      "inputs": [],
      "name": "issuerAddress",
      "outputs": [
        {
          "name": "",
          "type": "address"
        }
      ],
      "payable": false,
      "stateMutability": "view",
      "type": "function"
    },
    {
      "constant": true,
      "inputs": [],
      "name": "burnerAddress",
      "outputs": [
        {
          "name": "",
          "type": "address"
        }
      ],
      "payable": false,
      "stateMutability": "view",
      "type": "function"
    },
    {
      "constant": false,
      "inputs": [
        {
          "name": "_newIssuer",
          "type": "address"
        }
      ],
      "name": "setIssuer",
      "outputs": [],
      "payable": false,
      "stateMutability": "nonpayable",
      "type": "function"
    },
    {
      "constant": false,
      "inputs": [
        {
          "name": "_newBurner",
          "type": "address"
        }
      ],
      "name": "setBurner",
      "outputs": [],
      "payable": false,
      "stateMutability": "nonpayable",
      "type": "function"
    },
    {
      "constant": true,
      "inputs": [],
      "name": "isIssuer",
      "outputs": [
        {
          "name": "",
          "type": "bool"
        }
      ],
      "payable": false,
      "stateMutability": "view",
      "type": "function"
    },
    {
      "constant": true,
      "inputs": [],
      "name": "isBurner",
      "outputs": [
        {
          "name": "",
          "type": "bool"
        }
      ],
      "payable": false,
      "stateMutability": "view",
      "type": "function"
    }
  ],
  "bytecode": "0x608060405234801561001057600080fd5b506105b7806100206000396000f3fe608060405234801561001057600080fd5b506004361061007f576000357c01000000000000000000000000000000000000000000000000000000009004806355cc4e571461008457806386af78fa146100c857806391bf9de9146100ea578063a63234e01461010c578063a996d6ce14610156578063e6293e231461019a575b600080fd5b6100c66004803603602081101561009a57600080fd5b81019080803573ffffffffffffffffffffffffffffffffffffffff1690602001909291905050506101e4565b005b6100d0610306565b604051808215151515815260200191505060405180910390f35b6100f261035d565b604051808215151515815260200191505060405180910390f35b6101146103b5565b604051808273ffffffffffffffffffffffffffffffffffffffff1673ffffffffffffffffffffffffffffffffffffffff16815260200191505060405180910390f35b6101986004803603602081101561016c57600080fd5b81019080803573ffffffffffffffffffffffffffffffffffffffff1690602001909291905050506103da565b005b6101a26104fe565b604051808273ffffffffffffffffffffffffffffffffffffffff1673ffffffffffffffffffffffffffffffffffffffff16815260200191505060405180910390f35b6000809054906101000a900473ffffffffffffffffffffffffffffffffffffffff1673ffffffffffffffffffffffffffffffffffffffff163373ffffffffffffffffffffffffffffffffffffffff1614610289576040517f08c379a000000000000000000000000000000000000000000000000000000000815260040180806020018281038252602f815260200180610525602f913960400191505060405180910390fd5b600073ffffffffffffffffffffffffffffffffffffffff168173ffffffffffffffffffffffffffffffffffffffff1614156102c357600080fd5b806000806101000a81548173ffffffffffffffffffffffffffffffffffffffff021916908373ffffffffffffffffffffffffffffffffffffffff16021790555050565b60008060009054906101000a900473ffffffffffffffffffffffffffffffffffffffff1673ffffffffffffffffffffffffffffffffffffffff163373ffffffffffffffffffffffffffffffffffffffff1614905090565b6000600160009054906101000a900473ffffffffffffffffffffffffffffffffffffffff1673ffffffffffffffffffffffffffffffffffffffff163373ffffffffffffffffffffffffffffffffffffffff1614905090565b6000809054906101000a900473ffffffffffffffffffffffffffffffffffffffff1681565b600160009054906101000a900473ffffffffffffffffffffffffffffffffffffffff1673ffffffffffffffffffffffffffffffffffffffff163373ffffffffffffffffffffffffffffffffffffffff1614610480576040517f08c379a000000000000000000000000000000000000000000000000000000000815260040180806020018281038252602f815260200180610554602f913960400191505060405180910390fd5b600073ffffffffffffffffffffffffffffffffffffffff168173ffffffffffffffffffffffffffffffffffffffff1614156104ba57600080fd5b80600160006101000a81548173ffffffffffffffffffffffffffffffffffffffff021916908373ffffffffffffffffffffffffffffffffffffffff16021790555050565b600160009054906101000a900473ffffffffffffffffffffffffffffffffffffffff168156fe4f6e6c79207468652069737375657220616464726573732063616e20706572666f726d207468697320616374696f6e4f6e6c7920746865206275726e657220616464726573732063616e20706572666f726d207468697320616374696f6ea265627a7a7230582051df2301addc34a7cb83ec964a2c2d15a8f3b2f03ad76d89390ecbf536d7982b64736f6c63430005090032",
  "source": "pragma solidity ^0.5.8;\n\n/// @title A facet of TitleToken that manages special access privileges.\n/// @author Matt Girdler (github.com/mattgirdler)\n\ncontract TitleAccessControl {\n\n    address public issuerAddress;\n    address public burnerAddress;\n\n    /// @dev Access modifier for issuer-only functionality\n    modifier onlyIssuer() {\n        require(msg.sender == issuerAddress, \"Only the issuer address can perform this action\");\n        _;\n    }\n\n    /// @dev Access modifier for burner-only functionality\n    modifier onlyBurner() {\n        require(msg.sender == burnerAddress, \"Only the burner address can perform this action\");\n        _;\n    }\n\n    /// @dev Assigns a new address to act as Issuer. Only available to the current Issuer address.\n    /// @param _newIssuer The address of the new Issuer\n    function setIssuer(address _newIssuer) external onlyIssuer {\n        require(_newIssuer != address(0));\n\n        issuerAddress = _newIssuer;\n    }\n\n    /// @dev Assigns a new address to act as Burner. Only available to the current Burner address.\n    /// @param _newBurner The address of the new Burner\n    function setBurner(address _newBurner) external onlyBurner {\n        require(_newBurner != address(0));\n\n        burnerAddress = _newBurner;\n    }\n\n    /// @dev Returns true if the message sender is the issuer\n    function isIssuer() external view returns (bool) {\n        return msg.sender == issuerAddress;\n    }\n\n    /// @dev Returns true if the message sender is the burner\n    function isBurner() external view returns (bool) {\n        return msg.sender == burnerAddress;\n    }\n}",
  "sourcePath": "/Users/CS040MG/Projects/digital-street/year-three/tokenisation/title-token/contracts/TitleAccessControl.sol",
  "compiler": {
    "name": "solc",
    "version": "0.5.9+commit.e560f70d.Emscripten.clang"
  },
  "schemaVersion": "3.0.9",
  "updatedAt": "2019-06-24T09:20:29.830Z",
  "devdoc": {
    "author": "Matt Girdler (github.com/mattgirdler)",
    "methods": {
      "isBurner()": {
        "details": "Returns true if the message sender is the burner"
      },
      "isIssuer()": {
        "details": "Returns true if the message sender is the issuer"
      },
      "setBurner(address)": {
        "details": "Assigns a new address to act as Burner. Only available to the current Burner address.",
        "params": {
          "_newBurner": "The address of the new Burner"
        }
      },
      "setIssuer(address)": {
        "details": "Assigns a new address to act as Issuer. Only available to the current Issuer address.",
        "params": {
          "_newIssuer": "The address of the new Issuer"
        }
      }
    },
    "title": "A facet of TitleToken that manages special access privileges."
  },
  "userdoc": {
    "methods": {}
  }
}