{
  "contractName": "TitleCore",
  "abi": [
    {
      "constant": true,
      "inputs": [
        {
          "name": "interfaceId",
          "type": "bytes4"
        }
      ],
      "name": "supportsInterface",
      "outputs": [
        {
          "name": "",
          "type": "bool"
        }
      ],
      "payable": false,
      "stateMutability": "view",
      "type": "function"
    },
    {
      "constant": true,
      "inputs": [],
      "name": "name",
      "outputs": [
        {
          "name": "",
          "type": "string"
        }
      ],
      "payable": false,
      "stateMutability": "view",
      "type": "function"
    },
    {
      "constant": true,
      "inputs": [
        {
          "name": "tokenId",
          "type": "uint256"
        }
      ],
      "name": "getApproved",
      "outputs": [
        {
          "name": "",
          "type": "address"
        }
      ],
      "payable": false,
      "stateMutability": "view",
      "type": "function"
    },
    {
      "constant": false,
      "inputs": [
        {
          "name": "to",
          "type": "address"
        },
        {
          "name": "tokenId",
          "type": "uint256"
        }
      ],
      "name": "approve",
      "outputs": [],
      "payable": false,
      "stateMutability": "nonpayable",
      "type": "function"
    },
    {
      "constant": true,
      "inputs": [
        {
          "name": "",
          "type": "string"
        }
      ],
      "name": "titleIdToTokenIndex",
      "outputs": [
        {
          "name": "",
          "type": "uint256"
        }
      ],
      "payable": false,
      "stateMutability": "view",
      "type": "function"
    },
    {
      "constant": true,
      "inputs": [],
      "name": "totalSupply",
      "outputs": [
        {
          "name": "",
          "type": "uint256"
        }
      ],
      "payable": false,
      "stateMutability": "view",
      "type": "function"
    },
    {
      "constant": false,
      "inputs": [
        {
          "name": "from",
          "type": "address"
        },
        {
          "name": "to",
          "type": "address"
        },
        {
          "name": "tokenId",
          "type": "uint256"
        }
      ],
      "name": "transferFrom",
      "outputs": [],
      "payable": false,
      "stateMutability": "nonpayable",
      "type": "function"
    },
    {
      "constant": true,
      "inputs": [
        {
          "name": "owner",
          "type": "address"
        },
        {
          "name": "index",
          "type": "uint256"
        }
      ],
      "name": "tokenOfOwnerByIndex",
      "outputs": [
        {
          "name": "",
          "type": "uint256"
        }
      ],
      "payable": false,
      "stateMutability": "view",
      "type": "function"
    },
    {
      "constant": false,
      "inputs": [
        {
          "name": "from",
          "type": "address"
        },
        {
          "name": "to",
          "type": "address"
        },
        {
          "name": "tokenId",
          "type": "uint256"
        }
      ],
      "name": "safeTransferFrom",
      "outputs": [],
      "payable": false,
      "stateMutability": "nonpayable",
      "type": "function"
    },
    {
      "constant": true,
      "inputs": [
        {
          "name": "index",
          "type": "uint256"
        }
      ],
      "name": "tokenByIndex",
      "outputs": [
        {
          "name": "",
          "type": "uint256"
        }
      ],
      "payable": false,
      "stateMutability": "view",
      "type": "function"
    },
    {
      "constant": false,
      "inputs": [
        {
          "name": "_newIssuer",
          "type": "address"
        }
      ],
      "name": "setIssuer",
      "outputs": [],
      "payable": false,
      "stateMutability": "nonpayable",
      "type": "function"
    },
    {
      "constant": true,
      "inputs": [
        {
          "name": "tokenId",
          "type": "uint256"
        }
      ],
      "name": "ownerOf",
      "outputs": [
        {
          "name": "",
          "type": "address"
        }
      ],
      "payable": false,
      "stateMutability": "view",
      "type": "function"
    },
    {
      "constant": true,
      "inputs": [],
      "name": "newContractAddress",
      "outputs": [
        {
          "name": "",
          "type": "address"
        }
      ],
      "payable": false,
      "stateMutability": "view",
      "type": "function"
    },
    {
      "constant": true,
      "inputs": [
        {
          "name": "owner",
          "type": "address"
        }
      ],
      "name": "balanceOf",
      "outputs": [
        {
          "name": "",
          "type": "uint256"
        }
      ],
      "payable": false,
      "stateMutability": "view",
      "type": "function"
    },
    {
      "constant": true,
      "inputs": [],
      "name": "isIssuer",
      "outputs": [
        {
          "name": "",
          "type": "bool"
        }
      ],
      "payable": false,
      "stateMutability": "view",
      "type": "function"
    },
    {
      "constant": true,
      "inputs": [],
      "name": "isBurner",
      "outputs": [
        {
          "name": "",
          "type": "bool"
        }
      ],
      "payable": false,
      "stateMutability": "view",
      "type": "function"
    },
    {
      "constant": true,
      "inputs": [],
      "name": "symbol",
      "outputs": [
        {
          "name": "",
          "type": "string"
        }
      ],
      "payable": false,
      "stateMutability": "view",
      "type": "function"
    },
    {
      "constant": false,
      "inputs": [
        {
          "name": "to",
          "type": "address"
        },
        {
          "name": "approved",
          "type": "bool"
        }
      ],
      "name": "setApprovalForAll",
      "outputs": [],
      "payable": false,
      "stateMutability": "nonpayable",
      "type": "function"
    },
    {
      "constant": true,
      "inputs": [],
      "name": "issuerAddress",
      "outputs": [
        {
          "name": "",
          "type": "address"
        }
      ],
      "payable": false,
      "stateMutability": "view",
      "type": "function"
    },
    {
      "constant": true,
      "inputs": [
        {
          "name": "",
          "type": "uint256"
        }
      ],
      "name": "tokenIndexToApproved",
      "outputs": [
        {
          "name": "",
          "type": "address"
        }
      ],
      "payable": false,
      "stateMutability": "view",
      "type": "function"
    },
    {
      "constant": false,
      "inputs": [
        {
          "name": "_newBurner",
          "type": "address"
        }
      ],
      "name": "setBurner",
      "outputs": [],
      "payable": false,
      "stateMutability": "nonpayable",
      "type": "function"
    },
    {
      "constant": false,
      "inputs": [
        {
          "name": "from",
          "type": "address"
        },
        {
          "name": "to",
          "type": "address"
        },
        {
          "name": "tokenId",
          "type": "uint256"
        },
        {
          "name": "_data",
          "type": "bytes"
        }
      ],
      "name": "safeTransferFrom",
      "outputs": [],
      "payable": false,
      "stateMutability": "nonpayable",
      "type": "function"
    },
    {
      "constant": true,
      "inputs": [
        {
          "name": "tokenId",
          "type": "uint256"
        }
      ],
      "name": "tokenURI",
      "outputs": [
        {
          "name": "",
          "type": "string"
        }
      ],
      "payable": false,
      "stateMutability": "view",
      "type": "function"
    },
    {
      "constant": true,
      "inputs": [],
      "name": "burnerAddress",
      "outputs": [
        {
          "name": "",
          "type": "address"
        }
      ],
      "payable": false,
      "stateMutability": "view",
      "type": "function"
    },
    {
      "constant": true,
      "inputs": [
        {
          "name": "owner",
          "type": "address"
        },
        {
          "name": "operator",
          "type": "address"
        }
      ],
      "name": "isApprovedForAll",
      "outputs": [
        {
          "name": "",
          "type": "bool"
        }
      ],
      "payable": false,
      "stateMutability": "view",
      "type": "function"
    },
    {
      "inputs": [],
      "payable": false,
      "stateMutability": "nonpayable",
      "type": "constructor"
    },
    {
      "anonymous": false,
      "inputs": [
        {
          "indexed": false,
          "name": "owner",
          "type": "address"
        },
        {
          "indexed": false,
          "name": "tokenId",
          "type": "uint256"
        },
        {
          "indexed": false,
          "name": "titleId",
          "type": "string"
        }
      ],
      "name": "Issue",
      "type": "event"
    },
    {
      "anonymous": false,
      "inputs": [
        {
          "indexed": true,
          "name": "from",
          "type": "address"
        },
        {
          "indexed": true,
          "name": "to",
          "type": "address"
        },
        {
          "indexed": true,
          "name": "tokenId",
          "type": "uint256"
        }
      ],
      "name": "Transfer",
      "type": "event"
    },
    {
      "anonymous": false,
      "inputs": [
        {
          "indexed": true,
          "name": "owner",
          "type": "address"
        },
        {
          "indexed": true,
          "name": "approved",
          "type": "address"
        },
        {
          "indexed": true,
          "name": "tokenId",
          "type": "uint256"
        }
      ],
      "name": "Approval",
      "type": "event"
    },
    {
      "anonymous": false,
      "inputs": [
        {
          "indexed": true,
          "name": "owner",
          "type": "address"
        },
        {
          "indexed": true,
          "name": "operator",
          "type": "address"
        },
        {
          "indexed": false,
          "name": "approved",
          "type": "bool"
        }
      ],
      "name": "ApprovalForAll",
      "type": "event"
    },
    {
      "constant": false,
      "inputs": [
        {
          "name": "_owner",
          "type": "address"
        },
        {
          "name": "_titleId",
          "type": "string"
        }
      ],
      "name": "issueTitleToken",
      "outputs": [
        {
          "name": "",
          "type": "uint256"
        }
      ],
      "payable": false,
      "stateMutability": "nonpayable",
      "type": "function"
    },
    {
      "constant": true,
      "inputs": [
        {
          "name": "_id",
          "type": "uint256"
        }
      ],
      "name": "getTitle",
      "outputs": [
        {
          "name": "titleId",
          "type": "string"
        },
        {
          "name": "issuanceTime",
          "type": "uint256"
        }
      ],
      "payable": false,
      "stateMutability": "view",
      "type": "function"
    },
    {
      "constant": false,
      "inputs": [
        {
          "name": "_id",
          "type": "uint256"
        }
      ],
      "name": "burn",
      "outputs": [],
      "payable": false,
      "stateMutability": "nonpayable",
      "type": "function"
    },
    {
      "constant": false,
      "inputs": [
        {
          "name": "_owner",
          "type": "address"
        },
        {
          "name": "_tokenId",
          "type": "uint256"
        }
      ],
      "name": "ownedTokens",
      "outputs": [
        {
          "name": "",
          "type": "uint256[]"
        }
      ],
      "payable": false,
      "stateMutability": "nonpayable",
      "type": "function"
    },
    {
      "constant": false,
      "inputs": [
        {
          "name": "_owner",
          "type": "address"
        }
      ],
      "name": "ownedTokens",
      "outputs": [
        {
          "name": "",
          "type": "uint256[]"
        }
      ],
      "payable": false,
      "stateMutability": "nonpayable",
      "type": "function"
    }
  ],
  "bytecode": "0x60806040523480156200001157600080fd5b506040518060400160405280600a81526020017f5469746c65546f6b656e000000000000000000000000000000000000000000008152506040518060400160405280600281526020017f54540000000000000000000000000000000000000000000000000000000000008152508181620000bd6301ffc9a77c01000000000000000000000000000000000000000000000000000000000262000282640100000000026401000000009004565b620000fa6380ac58cd7c01000000000000000000000000000000000000000000000000000000000262000282640100000000026401000000009004565b6200013763780e9d637c01000000000000000000000000000000000000000000000000000000000262000282640100000000026401000000009004565b81600b90805190602001906200014f92919062000ac6565b5080600c90805190602001906200016892919062000ac6565b50620001a6635b5e139f7c01000000000000000000000000000000000000000000000000000000000262000282640100000000026401000000009004565b50505050336000806101000a81548173ffffffffffffffffffffffffffffffffffffffff021916908373ffffffffffffffffffffffffffffffffffffffff16021790555033600160006101000a81548173ffffffffffffffffffffffffffffffffffffffff021916908373ffffffffffffffffffffffffffffffffffffffff1602179055506200027b336040518060400160405280600781526020017f47656e6573697300000000000000000000000000000000000000000000000000815250620003a8640100000000026401000000009004565b5062000c20565b63ffffffff7c010000000000000000000000000000000000000000000000000000000002817bffffffffffffffffffffffffffffffffffffffffffffffffffffffff191614156200033b576040517f08c379a000000000000000000000000000000000000000000000000000000000815260040180806020018281038252601c8152602001807f4552433136353a20696e76616c696420696e746572666163652069640000000081525060200191505060405180910390fd5b600160026000837bffffffffffffffffffffffffffffffffffffffffffffffffffffffff19167bffffffffffffffffffffffffffffffffffffffffffffffffffffffff1916815260200190815260200160002060006101000a81548160ff02191690831515021790555050565b6000806010836040518082805190602001908083835b60208310620003e35780518252602082019150602081019050602083039250620003be565b6001836020036101000a038019825116818451168082178552505050505050905001915050908152602001604051809103902054111562000470576040517f08c379a00000000000000000000000000000000000000000000000000000000081526004018080602001828103825260288152602001806200442d6028913960400191505060405180910390fd5b6200047a62000b4d565b60405180604001604052808481526020014267ffffffffffffffff16815250905060006001600e83908060018154018082558091505090600182039060005260206000209060020201600090919290919091506000820151816000019080519060200190620004eb92919062000b71565b5060208201518160010160006101000a81548167ffffffffffffffff021916908367ffffffffffffffff1602179055505050039050806010856040518082805190602001908083835b6020831062000559578051825260208201915060208101905060208303925062000534565b6001836020036101000a0380198251168184511680821785525050505050509050019150509081526020016040518091039020819055507f9a27b65b834a85153a0161940629613dcded325ecd78845ba99e2ec15d53b77b858286604051808473ffffffffffffffffffffffffffffffffffffffff1673ffffffffffffffffffffffffffffffffffffffff16815260200183815260200180602001828103825283818151815260200191508051906020019080838360005b838110156200062e57808201518184015260208101905062000611565b50505050905090810190601f1680156200065c5780820380516001836020036101000a031916815260200191505b5094505050505060405180910390a162000686858262000691640100000000026401000000009004565b809250505092915050565b620006b18282620006ea6401000000000262002cf2176401000000009004565b620006cc82826200092b640100000000026401000000009004565b620006e681620009f2640100000000026401000000009004565b5050565b600073ffffffffffffffffffffffffffffffffffffffff168273ffffffffffffffffffffffffffffffffffffffff1614156200078e576040517f08c379a00000000000000000000000000000000000000000000000000000000081526004018080602001828103825260208152602001807f4552433732313a206d696e7420746f20746865207a65726f206164647265737381525060200191505060405180910390fd5b620007a88162000a3e640100000000026401000000009004565b156200081c576040517f08c379a000000000000000000000000000000000000000000000000000000000815260040180806020018281038252601c8152602001807f4552433732313a20746f6b656e20616c7265616479206d696e7465640000000081525060200191505060405180910390fd5b816003600083815260200190815260200160002060006101000a81548173ffffffffffffffffffffffffffffffffffffffff021916908373ffffffffffffffffffffffffffffffffffffffff160217905550620008cb600560008473ffffffffffffffffffffffffffffffffffffffff1673ffffffffffffffffffffffffffffffffffffffff16815260200190815260200160002062000ab06401000000000262003037176401000000009004565b808273ffffffffffffffffffffffffffffffffffffffff16600073ffffffffffffffffffffffffffffffffffffffff167fddf252ad1be2c89b69c2b068fc378daa952ba7f163c4a11628f55a4df523b3ef60405160405180910390a45050565b600760008373ffffffffffffffffffffffffffffffffffffffff1673ffffffffffffffffffffffffffffffffffffffff168152602001908152602001600020805490506008600083815260200190815260200160002081905550600760008373ffffffffffffffffffffffffffffffffffffffff1673ffffffffffffffffffffffffffffffffffffffff1681526020019081526020016000208190806001815401808255809150509060018203906000526020600020016000909192909190915055505050565b600980549050600a600083815260200190815260200160002081905550600981908060018154018082558091505090600182039060005260206000200160009091929091909150555050565b6000806003600084815260200190815260200160002060009054906101000a900473ffffffffffffffffffffffffffffffffffffffff169050600073ffffffffffffffffffffffffffffffffffffffff168173ffffffffffffffffffffffffffffffffffffffff161415915050919050565b6001816000016000828254019250508190555050565b828054600181600116156101000203166002900490600052602060002090601f016020900481019282601f1062000b0957805160ff191683800117855562000b3a565b8280016001018555821562000b3a579182015b8281111562000b3957825182559160200191906001019062000b1c565b5b50905062000b49919062000bf8565b5090565b604051806040016040528060608152602001600067ffffffffffffffff1681525090565b828054600181600116156101000203166002900490600052602060002090601f016020900481019282601f1062000bb457805160ff191683800117855562000be5565b8280016001018555821562000be5579182015b8281111562000be457825182559160200191906001019062000bc7565b5b50905062000bf4919062000bf8565b5090565b62000c1d91905b8082111562000c1957600081600090555060010162000bff565b5090565b90565b6137fd8062000c306000396000f3fe608060405234801561001057600080fd5b50600436106101ec576000357c0100000000000000000000000000000000000000000000000000000000900480636af04a5711610121578063a63234e0116100bf578063b88d4fde1161008e578063b88d4fde14610bcd578063c87b56dd14610cd2578063e6293e2314610d79578063e985e9c514610dc3576101ec565b8063a63234e014610a38578063a8bd9c3214610a82578063a996d6ce14610af0578063b12ab40f14610b34576101ec565b806391bf9de9116100fb57806391bf9de914610895578063929a79b1146108b757806395d89b4114610965578063a22cb465146109e8576101ec565b80636af04a57146107d157806370a082311461081b57806386af78fa14610873576101ec565b806323b872dd1161018e57806342966c681161016857806342966c68146106af5780634f6ccce7146106dd57806355cc4e571461071f5780636352211e14610763576101ec565b806323b872dd146105715780632f745c59146105df57806342842e0e14610641576101ec565b8063095ea7b3116101ca578063095ea7b3146103475780630f981cff146103955780631040f4571461046457806318160ddd14610553576101ec565b806301ffc9a7146101f157806306fdde0314610256578063081812fc146102d9575b600080fd5b61023c6004803603602081101561020757600080fd5b8101908080357bffffffffffffffffffffffffffffffffffffffffffffffffffffffff19169060200190929190505050610e3f565b604051808215151515815260200191505060405180910390f35b61025e610ea7565b6040518080602001828103825283818151815260200191508051906020019080838360005b8381101561029e578082015181840152602081019050610283565b50505050905090810190601f1680156102cb5780820380516001836020036101000a031916815260200191505b509250505060405180910390f35b610305600480360360208110156102ef57600080fd5b8101908080359060200190929190505050610f49565b604051808273ffffffffffffffffffffffffffffffffffffffff1673ffffffffffffffffffffffffffffffffffffffff16815260200191505060405180910390f35b6103936004803603604081101561035d57600080fd5b81019080803573ffffffffffffffffffffffffffffffffffffffff16906020019092919080359060200190929190505050610fe4565b005b61044e600480360360208110156103ab57600080fd5b81019080803590602001906401000000008111156103c857600080fd5b8201836020820111156103da57600080fd5b803590602001918460018302840111640100000000831117156103fc57600080fd5b91908080601f016020809104026020016040519081016040528093929190818152602001838380828437600081840152601f19601f8201169050808301925050505050505091929192905050506111bd565b6040518082815260200191505060405180910390f35b61053d6004803603604081101561047a57600080fd5b81019080803573ffffffffffffffffffffffffffffffffffffffff169060200190929190803590602001906401000000008111156104b757600080fd5b8201836020820111156104c957600080fd5b803590602001918460018302840111640100000000831117156104eb57600080fd5b91908080601f016020809104026020016040519081016040528093929190818152602001838380828437600081840152601f19601f8201169050808301925050505050505091929192905050506111eb565b6040518082815260200191505060405180910390f35b61055b6111ff565b6040518082815260200191505060405180910390f35b6105dd6004803603606081101561058757600080fd5b81019080803573ffffffffffffffffffffffffffffffffffffffff169060200190929190803573ffffffffffffffffffffffffffffffffffffffff1690602001909291908035906020019092919050505061120c565b005b61062b600480360360408110156105f557600080fd5b81019080803573ffffffffffffffffffffffffffffffffffffffff1690602001909291908035906020019092919050505061127b565b6040518082815260200191505060405180910390f35b6106ad6004803603606081101561065757600080fd5b81019080803573ffffffffffffffffffffffffffffffffffffffff169060200190929190803573ffffffffffffffffffffffffffffffffffffffff1690602001909291908035906020019092919050505061133a565b005b6106db600480360360208110156106c557600080fd5b810190808035906020019092919050505061135a565b005b610709600480360360208110156106f357600080fd5b8101908080359060200190929190505050611535565b6040518082815260200191505060405180910390f35b6107616004803603602081101561073557600080fd5b81019080803573ffffffffffffffffffffffffffffffffffffffff1690602001909291905050506115b5565b005b61078f6004803603602081101561077957600080fd5b81019080803590602001909291905050506116d7565b604051808273ffffffffffffffffffffffffffffffffffffffff1673ffffffffffffffffffffffffffffffffffffffff16815260200191505060405180910390f35b6107d961179f565b604051808273ffffffffffffffffffffffffffffffffffffffff1673ffffffffffffffffffffffffffffffffffffffff16815260200191505060405180910390f35b61085d6004803603602081101561083157600080fd5b81019080803573ffffffffffffffffffffffffffffffffffffffff1690602001909291905050506117c5565b6040518082815260200191505060405180910390f35b61087b61189a565b604051808215151515815260200191505060405180910390f35b61089d6118f1565b604051808215151515815260200191505060405180910390f35b6108e3600480360360208110156108cd57600080fd5b8101908080359060200190929190505050611949565b6040518080602001838152602001828103825284818151815260200191508051906020019080838360005b8381101561092957808201518184015260208101905061090e565b50505050905090810190601f1680156109565780820380516001836020036101000a031916815260200191505b50935050505060405180910390f35b61096d611a35565b6040518080602001828103825283818151815260200191508051906020019080838360005b838110156109ad578082015181840152602081019050610992565b50505050905090810190601f1680156109da5780820380516001836020036101000a031916815260200191505b509250505060405180910390f35b610a36600480360360408110156109fe57600080fd5b81019080803573ffffffffffffffffffffffffffffffffffffffff169060200190929190803515159060200190929190505050611ad7565b005b610a40611c7a565b604051808273ffffffffffffffffffffffffffffffffffffffff1673ffffffffffffffffffffffffffffffffffffffff16815260200191505060405180910390f35b610aae60048036036020811015610a9857600080fd5b8101908080359060200190929190505050611c9f565b604051808273ffffffffffffffffffffffffffffffffffffffff1673ffffffffffffffffffffffffffffffffffffffff16815260200191505060405180910390f35b610b3260048036036020811015610b0657600080fd5b81019080803573ffffffffffffffffffffffffffffffffffffffff169060200190929190505050611cd2565b005b610b7660048036036020811015610b4a57600080fd5b81019080803573ffffffffffffffffffffffffffffffffffffffff169060200190929190505050611df6565b6040518080602001828103825283818151815260200191508051906020019060200280838360005b83811015610bb9578082015181840152602081019050610b9e565b505050509050019250505060405180910390f35b610cd060048036036080811015610be357600080fd5b81019080803573ffffffffffffffffffffffffffffffffffffffff169060200190929190803573ffffffffffffffffffffffffffffffffffffffff1690602001909291908035906020019092919080359060200190640100000000811115610c4a57600080fd5b820183602082011115610c5c57600080fd5b80359060200191846001830284011164010000000083111715610c7e57600080fd5b91908080601f016020809104026020016040519081016040528093929190818152602001838380828437600081840152601f19601f820116905080830192505050505050509192919290505050611ec9565b005b610cfe60048036036020811015610ce857600080fd5b8101908080359060200190929190505050611f3b565b6040518080602001828103825283818151815260200191508051906020019080838360005b83811015610d3e578082015181840152602081019050610d23565b50505050905090810190601f168015610d6b5780820380516001836020036101000a031916815260200191505b509250505060405180910390f35b610d8161204e565b604051808273ffffffffffffffffffffffffffffffffffffffff1673ffffffffffffffffffffffffffffffffffffffff16815260200191505060405180910390f35b610e2560048036036040811015610dd957600080fd5b81019080803573ffffffffffffffffffffffffffffffffffffffff169060200190929190803573ffffffffffffffffffffffffffffffffffffffff169060200190929190505050612074565b604051808215151515815260200191505060405180910390f35b600060026000837bffffffffffffffffffffffffffffffffffffffffffffffffffffffff19167bffffffffffffffffffffffffffffffffffffffffffffffffffffffff1916815260200190815260200160002060009054906101000a900460ff169050919050565b6060600b8054600181600116156101000203166002900480601f016020809104026020016040519081016040528092919081815260200182805460018160011615610100020316600290048015610f3f5780601f10610f1457610100808354040283529160200191610f3f565b820191906000526020600020905b815481529060010190602001808311610f2257829003601f168201915b5050505050905090565b6000610f5482612108565b610fa9576040517f08c379a000000000000000000000000000000000000000000000000000000000815260040180806020018281038252602c815260200180613673602c913960400191505060405180910390fd5b6004600083815260200190815260200160002060009054906101000a900473ffffffffffffffffffffffffffffffffffffffff169050919050565b6000610fef826116d7565b90508073ffffffffffffffffffffffffffffffffffffffff168373ffffffffffffffffffffffffffffffffffffffff161415611076576040517f08c379a00000000000000000000000000000000000000000000000000000000081526004018080602001828103825260218152602001806136f76021913960400191505060405180910390fd5b8073ffffffffffffffffffffffffffffffffffffffff163373ffffffffffffffffffffffffffffffffffffffff1614806110b657506110b58133612074565b5b61110b576040517f08c379a00000000000000000000000000000000000000000000000000000000081526004018080602001828103825260388152602001806135e86038913960400191505060405180910390fd5b826004600084815260200190815260200160002060006101000a81548173ffffffffffffffffffffffffffffffffffffffff021916908373ffffffffffffffffffffffffffffffffffffffff160217905550818373ffffffffffffffffffffffffffffffffffffffff168273ffffffffffffffffffffffffffffffffffffffff167f8c5be1e5ebec7d5bd14f71427d1e84f3dd0314c0f7b2291e5b200ac8c7c3b92560405160405180910390a4505050565b6010818051602081018201805184825260208301602085012081835280955050505050506000915090505481565b60006111f7838361217a565b905092915050565b6000600980549050905090565b6112163382612445565b61126b576040517f08c379a00000000000000000000000000000000000000000000000000000000081526004018080602001828103825260318152602001806137186031913960400191505060405180910390fd5b611276838383612539565b505050565b6000611286836117c5565b82106112dd576040517f08c379a000000000000000000000000000000000000000000000000000000000815260040180806020018281038252602b81526020018061350c602b913960400191505060405180910390fd5b600760008473ffffffffffffffffffffffffffffffffffffffff1673ffffffffffffffffffffffffffffffffffffffff168152602001908152602001600020828154811061132757fe5b9060005260206000200154905092915050565b61135583838360405180602001604052806000815250611ec9565b505050565b600160009054906101000a900473ffffffffffffffffffffffffffffffffffffffff1673ffffffffffffffffffffffffffffffffffffffff163373ffffffffffffffffffffffffffffffffffffffff1614611400576040517f08c379a000000000000000000000000000000000000000000000000000000000815260040180806020018281038252602f81526020018061379a602f913960400191505060405180910390fd5b6060600e828154811061140f57fe5b90600052602060002090600202016000018054600181600116156101000203166002900480601f0160208091040260200160405190810160405280929190818152602001828054600181600116156101000203166002900480156114b45780601f10611489576101008083540402835291602001916114b4565b820191906000526020600020905b81548152906001019060200180831161149757829003601f168201915b505050505090506010816040518082805190602001908083835b602083106114f157805182526020820191506020810190506020830392506114ce565b6001836020036101000a0380198251168184511680821785525050505050509050019150509081526020016040518091039020600090556115318261255d565b5050565b600061153f6111ff565b8210611596576040517f08c379a000000000000000000000000000000000000000000000000000000000815260040180806020018281038252602c815260200180613749602c913960400191505060405180910390fd5b600982815481106115a357fe5b90600052602060002001549050919050565b6000809054906101000a900473ffffffffffffffffffffffffffffffffffffffff1673ffffffffffffffffffffffffffffffffffffffff163373ffffffffffffffffffffffffffffffffffffffff161461165a576040517f08c379a000000000000000000000000000000000000000000000000000000000815260040180806020018281038252602f81526020018061358d602f913960400191505060405180910390fd5b600073ffffffffffffffffffffffffffffffffffffffff168173ffffffffffffffffffffffffffffffffffffffff16141561169457600080fd5b806000806101000a81548173ffffffffffffffffffffffffffffffffffffffff021916908373ffffffffffffffffffffffffffffffffffffffff16021790555050565b6000806003600084815260200190815260200160002060009054906101000a900473ffffffffffffffffffffffffffffffffffffffff169050600073ffffffffffffffffffffffffffffffffffffffff168173ffffffffffffffffffffffffffffffffffffffff161415611796576040517f08c379a000000000000000000000000000000000000000000000000000000000815260040180806020018281038252602981526020018061364a6029913960400191505060405180910390fd5b80915050919050565b601160009054906101000a900473ffffffffffffffffffffffffffffffffffffffff1681565b60008073ffffffffffffffffffffffffffffffffffffffff168273ffffffffffffffffffffffffffffffffffffffff16141561184c576040517f08c379a000000000000000000000000000000000000000000000000000000000815260040180806020018281038252602a815260200180613620602a913960400191505060405180910390fd5b611893600560008473ffffffffffffffffffffffffffffffffffffffff1673ffffffffffffffffffffffffffffffffffffffff168152602001908152602001600020612572565b9050919050565b60008060009054906101000a900473ffffffffffffffffffffffffffffffffffffffff1673ffffffffffffffffffffffffffffffffffffffff163373ffffffffffffffffffffffffffffffffffffffff1614905090565b6000600160009054906101000a900473ffffffffffffffffffffffffffffffffffffffff1673ffffffffffffffffffffffffffffffffffffffff163373ffffffffffffffffffffffffffffffffffffffff1614905090565b6060600080600e848154811061195b57fe5b90600052602060002090600202019050806000018054600181600116156101000203166002900480601f016020809104026020016040519081016040528092919081815260200182805460018160011615610100020316600290048015611a035780601f106119d857610100808354040283529160200191611a03565b820191906000526020600020905b8154815290600101906020018083116119e657829003601f168201915b505050505092508060010160009054906101000a900467ffffffffffffffff1667ffffffffffffffff16915050915091565b6060600c8054600181600116156101000203166002900480601f016020809104026020016040519081016040528092919081815260200182805460018160011615610100020316600290048015611acd5780601f10611aa257610100808354040283529160200191611acd565b820191906000526020600020905b815481529060010190602001808311611ab057829003601f168201915b5050505050905090565b3373ffffffffffffffffffffffffffffffffffffffff168273ffffffffffffffffffffffffffffffffffffffff161415611b79576040517f08c379a00000000000000000000000000000000000000000000000000000000081526004018080602001828103825260198152602001807f4552433732313a20617070726f766520746f2063616c6c65720000000000000081525060200191505060405180910390fd5b80600660003373ffffffffffffffffffffffffffffffffffffffff1673ffffffffffffffffffffffffffffffffffffffff16815260200190815260200160002060008473ffffffffffffffffffffffffffffffffffffffff1673ffffffffffffffffffffffffffffffffffffffff16815260200190815260200160002060006101000a81548160ff0219169083151502179055508173ffffffffffffffffffffffffffffffffffffffff163373ffffffffffffffffffffffffffffffffffffffff167f17307eab39ab6107e8899845ad3d59bd9653f200f220920489ca2b5937696c3183604051808215151515815260200191505060405180910390a35050565b6000809054906101000a900473ffffffffffffffffffffffffffffffffffffffff1681565b600f6020528060005260406000206000915054906101000a900473ffffffffffffffffffffffffffffffffffffffff1681565b600160009054906101000a900473ffffffffffffffffffffffffffffffffffffffff1673ffffffffffffffffffffffffffffffffffffffff163373ffffffffffffffffffffffffffffffffffffffff1614611d78576040517f08c379a000000000000000000000000000000000000000000000000000000000815260040180806020018281038252602f81526020018061379a602f913960400191505060405180910390fd5b600073ffffffffffffffffffffffffffffffffffffffff168173ffffffffffffffffffffffffffffffffffffffff161415611db257600080fd5b80600160006101000a81548173ffffffffffffffffffffffffffffffffffffffff021916908373ffffffffffffffffffffffffffffffffffffffff16021790555050565b60606000611e03836117c5565b905060608060129080519060200190611e1d929190613359565b5060008090505b82811015611e6e576012611e38868361127b565b90806001815401808255809150509060018203906000526020600020016000909192909190915055508080600101915050611e24565b506012805480602002602001604051908101604052809291908181526020018280548015611ebb57602002820191906000526020600020905b815481526020019060010190808311611ea7575b505050505092505050919050565b611ed484848461120c565b611ee084848484612580565b611f35576040517f08c379a00000000000000000000000000000000000000000000000000000000081526004018080602001828103825260328152602001806135376032913960400191505060405180910390fd5b50505050565b6060611f4682612108565b611f9b576040517f08c379a000000000000000000000000000000000000000000000000000000000815260040180806020018281038252602f8152602001806136c8602f913960400191505060405180910390fd5b600d60008381526020019081526020016000208054600181600116156101000203166002900480601f0160208091040260200160405190810160405280929190818152602001828054600181600116156101000203166002900480156120425780601f1061201757610100808354040283529160200191612042565b820191906000526020600020905b81548152906001019060200180831161202557829003601f168201915b50505050509050919050565b600160009054906101000a900473ffffffffffffffffffffffffffffffffffffffff1681565b6000600660008473ffffffffffffffffffffffffffffffffffffffff1673ffffffffffffffffffffffffffffffffffffffff16815260200190815260200160002060008373ffffffffffffffffffffffffffffffffffffffff1673ffffffffffffffffffffffffffffffffffffffff16815260200190815260200160002060009054906101000a900460ff16905092915050565b6000806003600084815260200190815260200160002060009054906101000a900473ffffffffffffffffffffffffffffffffffffffff169050600073ffffffffffffffffffffffffffffffffffffffff168173ffffffffffffffffffffffffffffffffffffffff161415915050919050565b6000806010836040518082805190602001908083835b602083106121b35780518252602082019150602081019050602083039250612190565b6001836020036101000a038019825116818451168082178552505050505050905001915050908152602001604051809103902054111561223e576040517f08c379a00000000000000000000000000000000000000000000000000000000081526004018080602001828103825260288152602001806134e46028913960400191505060405180910390fd5b6122466133a6565b60405180604001604052808481526020014267ffffffffffffffff16815250905060006001600e839080600181540180825580915050906001820390600052602060002090600202016000909192909190915060008201518160000190805190602001906122b59291906133ca565b5060208201518160010160006101000a81548167ffffffffffffffff021916908367ffffffffffffffff1602179055505050039050806010856040518082805190602001908083835b6020831061232157805182526020820191506020810190506020830392506122fe565b6001836020036101000a0380198251168184511680821785525050505050509050019150509081526020016040518091039020819055507f9a27b65b834a85153a0161940629613dcded325ecd78845ba99e2ec15d53b77b858286604051808473ffffffffffffffffffffffffffffffffffffffff1673ffffffffffffffffffffffffffffffffffffffff16815260200183815260200180602001828103825283818151815260200191508051906020019080838360005b838110156123f45780820151818401526020810190506123d9565b50505050905090810190601f1680156124215780820380516001836020036101000a031916815260200191505b5094505050505060405180910390a161243a85826127a1565b809250505092915050565b600061245082612108565b6124a5576040517f08c379a000000000000000000000000000000000000000000000000000000000815260040180806020018281038252602c8152602001806135bc602c913960400191505060405180910390fd5b60006124b0836116d7565b90508073ffffffffffffffffffffffffffffffffffffffff168473ffffffffffffffffffffffffffffffffffffffff16148061251f57508373ffffffffffffffffffffffffffffffffffffffff1661250784610f49565b73ffffffffffffffffffffffffffffffffffffffff16145b80612530575061252f8185612074565b5b91505092915050565b6125448383836127c2565b61254e8382612a1d565b6125588282612bbb565b505050565b61256f612569826116d7565b82612c82565b50565b600081600001549050919050565b60006125a18473ffffffffffffffffffffffffffffffffffffffff16612cdf565b6125ae5760019050612799565b60008473ffffffffffffffffffffffffffffffffffffffff1663150b7a02338887876040518563ffffffff167c0100000000000000000000000000000000000000000000000000000000028152600401808573ffffffffffffffffffffffffffffffffffffffff1673ffffffffffffffffffffffffffffffffffffffff1681526020018473ffffffffffffffffffffffffffffffffffffffff1673ffffffffffffffffffffffffffffffffffffffff16815260200183815260200180602001828103825283818151815260200191508051906020019080838360005b838110156126a557808201518184015260208101905061268a565b50505050905090810190601f1680156126d25780820380516001836020036101000a031916815260200191505b5095505050505050602060405180830381600087803b1580156126f457600080fd5b505af1158015612708573d6000803e3d6000fd5b505050506040513d602081101561271e57600080fd5b8101908080519060200190929190505050905063150b7a027c0100000000000000000000000000000000000000000000000000000000027bffffffffffffffffffffffffffffffffffffffffffffffffffffffff1916817bffffffffffffffffffffffffffffffffffffffffffffffffffffffff1916149150505b949350505050565b6127ab8282612cf2565b6127b58282612bbb565b6127be81612f0a565b5050565b8273ffffffffffffffffffffffffffffffffffffffff166127e2826116d7565b73ffffffffffffffffffffffffffffffffffffffff161461284e576040517f08c379a000000000000000000000000000000000000000000000000000000000815260040180806020018281038252602981526020018061369f6029913960400191505060405180910390fd5b600073ffffffffffffffffffffffffffffffffffffffff168273ffffffffffffffffffffffffffffffffffffffff1614156128d4576040517f08c379a00000000000000000000000000000000000000000000000000000000081526004018080602001828103825260248152602001806135696024913960400191505060405180910390fd5b6128dd81612f56565b612924600560008573ffffffffffffffffffffffffffffffffffffffff1673ffffffffffffffffffffffffffffffffffffffff168152602001908152602001600020613014565b61296b600560008473ffffffffffffffffffffffffffffffffffffffff1673ffffffffffffffffffffffffffffffffffffffff168152602001908152602001600020613037565b816003600083815260200190815260200160002060006101000a81548173ffffffffffffffffffffffffffffffffffffffff021916908373ffffffffffffffffffffffffffffffffffffffff160217905550808273ffffffffffffffffffffffffffffffffffffffff168473ffffffffffffffffffffffffffffffffffffffff167fddf252ad1be2c89b69c2b068fc378daa952ba7f163c4a11628f55a4df523b3ef60405160405180910390a4505050565b6000612a756001600760008673ffffffffffffffffffffffffffffffffffffffff1673ffffffffffffffffffffffffffffffffffffffff1681526020019081526020016000208054905061304d90919063ffffffff16565b9050600060086000848152602001908152602001600020549050818114612b62576000600760008673ffffffffffffffffffffffffffffffffffffffff1673ffffffffffffffffffffffffffffffffffffffff1681526020019081526020016000208381548110612ae257fe5b9060005260206000200154905080600760008773ffffffffffffffffffffffffffffffffffffffff1673ffffffffffffffffffffffffffffffffffffffff1681526020019081526020016000208381548110612b3a57fe5b9060005260206000200181905550816008600083815260200190815260200160002081905550505b600760008573ffffffffffffffffffffffffffffffffffffffff1673ffffffffffffffffffffffffffffffffffffffff168152602001908152602001600020805480919060019003612bb4919061344a565b5050505050565b600760008373ffffffffffffffffffffffffffffffffffffffff1673ffffffffffffffffffffffffffffffffffffffff168152602001908152602001600020805490506008600083815260200190815260200160002081905550600760008373ffffffffffffffffffffffffffffffffffffffff1673ffffffffffffffffffffffffffffffffffffffff1681526020019081526020016000208190806001815401808255809150509060018203906000526020600020016000909192909190915055505050565b612c8c82826130d6565b6000600d600083815260200190815260200160002080546001816001161561010002031660029004905014612cdb57600d60008281526020019081526020016000206000612cda9190613476565b5b5050565b600080823b905060008111915050919050565b600073ffffffffffffffffffffffffffffffffffffffff168273ffffffffffffffffffffffffffffffffffffffff161415612d95576040517f08c379a00000000000000000000000000000000000000000000000000000000081526004018080602001828103825260208152602001807f4552433732313a206d696e7420746f20746865207a65726f206164647265737381525060200191505060405180910390fd5b612d9e81612108565b15612e11576040517f08c379a000000000000000000000000000000000000000000000000000000000815260040180806020018281038252601c8152602001807f4552433732313a20746f6b656e20616c7265616479206d696e7465640000000081525060200191505060405180910390fd5b816003600083815260200190815260200160002060006101000a81548173ffffffffffffffffffffffffffffffffffffffff021916908373ffffffffffffffffffffffffffffffffffffffff160217905550612eaa600560008473ffffffffffffffffffffffffffffffffffffffff1673ffffffffffffffffffffffffffffffffffffffff168152602001908152602001600020613037565b808273ffffffffffffffffffffffffffffffffffffffff16600073ffffffffffffffffffffffffffffffffffffffff167fddf252ad1be2c89b69c2b068fc378daa952ba7f163c4a11628f55a4df523b3ef60405160405180910390a45050565b600980549050600a600083815260200190815260200160002081905550600981908060018154018082558091505090600182039060005260206000200160009091929091909150555050565b600073ffffffffffffffffffffffffffffffffffffffff166004600083815260200190815260200160002060009054906101000a900473ffffffffffffffffffffffffffffffffffffffff1673ffffffffffffffffffffffffffffffffffffffff16146130115760006004600083815260200190815260200160002060006101000a81548173ffffffffffffffffffffffffffffffffffffffff021916908373ffffffffffffffffffffffffffffffffffffffff1602179055505b50565b61302c6001826000015461304d90919063ffffffff16565b816000018190555050565b6001816000016000828254019250508190555050565b6000828211156130c5576040517f08c379a000000000000000000000000000000000000000000000000000000000815260040180806020018281038252601e8152602001807f536166654d6174683a207375627472616374696f6e206f766572666c6f77000081525060200191505060405180910390fd5b600082840390508091505092915050565b6130e08282613110565b6130ea8282612a1d565b6000600860008381526020019081526020016000208190555061310c8161329f565b5050565b8173ffffffffffffffffffffffffffffffffffffffff16613130826116d7565b73ffffffffffffffffffffffffffffffffffffffff161461319c576040517f08c379a00000000000000000000000000000000000000000000000000000000081526004018080602001828103825260258152602001806137756025913960400191505060405180910390fd5b6131a581612f56565b6131ec600560008473ffffffffffffffffffffffffffffffffffffffff1673ffffffffffffffffffffffffffffffffffffffff168152602001908152602001600020613014565b60006003600083815260200190815260200160002060006101000a81548173ffffffffffffffffffffffffffffffffffffffff021916908373ffffffffffffffffffffffffffffffffffffffff16021790555080600073ffffffffffffffffffffffffffffffffffffffff168373ffffffffffffffffffffffffffffffffffffffff167fddf252ad1be2c89b69c2b068fc378daa952ba7f163c4a11628f55a4df523b3ef60405160405180910390a45050565b60006132ba600160098054905061304d90919063ffffffff16565b90506000600a60008481526020019081526020016000205490506000600983815481106132e357fe5b9060005260206000200154905080600983815481106132fe57fe5b906000526020600020018190555081600a6000838152602001908152602001600020819055506009805480919060019003613339919061344a565b506000600a60008681526020019081526020016000208190555050505050565b828054828255906000526020600020908101928215613395579160200282015b82811115613394578251825591602001919060010190613379565b5b5090506133a291906134be565b5090565b604051806040016040528060608152602001600067ffffffffffffffff1681525090565b828054600181600116156101000203166002900490600052602060002090601f016020900481019282601f1061340b57805160ff1916838001178555613439565b82800160010185558215613439579182015b8281111561343857825182559160200191906001019061341d565b5b50905061344691906134be565b5090565b8154818355818111156134715781836000526020600020918201910161347091906134be565b5b505050565b50805460018160011615610100020316600290046000825580601f1061349c57506134bb565b601f0160209004906000526020600020908101906134ba91906134be565b5b50565b6134e091905b808211156134dc5760008160009055506001016134c4565b5090565b9056fe5469746c6520494420616c7265616479206173736f6369617465642077697468206120746f6b656e455243373231456e756d657261626c653a206f776e657220696e646578206f7574206f6620626f756e64734552433732313a207472616e7366657220746f206e6f6e20455243373231526563656976657220696d706c656d656e7465724552433732313a207472616e7366657220746f20746865207a65726f20616464726573734f6e6c79207468652069737375657220616464726573732063616e20706572666f726d207468697320616374696f6e4552433732313a206f70657261746f7220717565727920666f72206e6f6e6578697374656e7420746f6b656e4552433732313a20617070726f76652063616c6c6572206973206e6f74206f776e6572206e6f7220617070726f76656420666f7220616c6c4552433732313a2062616c616e636520717565727920666f7220746865207a65726f20616464726573734552433732313a206f776e657220717565727920666f72206e6f6e6578697374656e7420746f6b656e4552433732313a20617070726f76656420717565727920666f72206e6f6e6578697374656e7420746f6b656e4552433732313a207472616e73666572206f6620746f6b656e2074686174206973206e6f74206f776e4552433732314d657461646174613a2055524920717565727920666f72206e6f6e6578697374656e7420746f6b656e4552433732313a20617070726f76616c20746f2063757272656e74206f776e65724552433732313a207472616e736665722063616c6c6572206973206e6f74206f776e6572206e6f7220617070726f766564455243373231456e756d657261626c653a20676c6f62616c20696e646578206f7574206f6620626f756e64734552433732313a206275726e206f6620746f6b656e2074686174206973206e6f74206f776e4f6e6c7920746865206275726e657220616464726573732063616e20706572666f726d207468697320616374696f6ea265627a7a72305820a6e2d74e4f2078557e3a76576a93869d97e6a70b56684ea835c2c057a39ca66564736f6c634300050a00325469746c6520494420616c7265616479206173736f6369617465642077697468206120746f6b656e",
  "source": "pragma solidity ^0.5.8;\n\nimport \"./TitleBase.sol\";\n\ncontract TitleCore is TitleBase {\n\n    // Set in case the core contract is broken and an upgrade is required\n    address public newContractAddress;\n    uint256[] ownedTokensList;\n\n    /// @notice Creates the main TitleToken smart contract instance.\n    constructor() public {\n        issuerAddress = msg.sender;\n        burnerAddress = msg.sender;\n\n        _issueTitleToken(msg.sender, \"Genesis\");\n    }\n\n    function issueTitleToken(\n        address _owner,\n        string memory _titleId\n    )\n        public\n        // Access control disabled for demonstration purposes - allow users to 'request' tokens to themselves\n        // onlyIssuer\n        returns(uint) {\n            return _issueTitleToken(_owner, _titleId);\n        }\n\n    function getTitle(uint256 _id)\n        external\n        view\n        returns (\n        string memory titleId,\n        uint256 issuanceTime\n    ) {\n        Title storage title = titles[_id];\n\n        titleId = string(title.titleId);\n        issuanceTime = uint256(title.issuanceTime);\n    }\n\n    function burn(uint256 _id) external onlyBurner {\n        // Get the Title ID\n        string memory titleId = titles[_id].titleId;\n\n        // Update mappings\n        delete titleIdToTokenIndex[titleId];\n\n        _burn(_id);\n    }\n\n    function ownedTokens(\n        address _owner\n    )\n        public\n        returns (uint256[] memory)\n    {\n        uint256 balance = balanceOf(_owner);\n        uint256[] memory tempOwnedTokens;\n        ownedTokensList = tempOwnedTokens;\n\n        for (uint i = 0; i < balance; i++) {\n            ownedTokensList.push(tokenOfOwnerByIndex(_owner, i));\n        }\n        return ownedTokensList;\n    }\n}",
  "sourcePath": "/Users/CS040MG/Projects/digital-street/year-three/tokenisation/title-token/contracts/TitleCore.sol",
  "compiler": {
    "name": "solc",
    "version": "0.5.10+commit.5a6ea5b1.Emscripten.clang"
  },
  "schemaVersion": "3.0.9",
  "updatedAt": "2019-06-27T10:49:47.750Z",
  "devdoc": {
    "methods": {
      "approve(address,uint256)": {
        "details": "Approves another address to transfer the given token ID The zero address indicates there is no approved address. There can only be one approved address per token at a given time. Can only be called by the token owner or an approved operator.",
        "params": {
          "to": "address to be approved for the given token ID",
          "tokenId": "uint256 ID of the token to be approved"
        }
      },
      "balanceOf(address)": {
        "details": "Gets the balance of the specified address.",
        "params": {
          "owner": "address to query the balance of"
        },
        "return": "uint256 representing the amount owned by the passed address"
      },
      "getApproved(uint256)": {
        "details": "Gets the approved address for a token ID, or zero if no address set Reverts if the token ID does not exist.",
        "params": {
          "tokenId": "uint256 ID of the token to query the approval of"
        },
        "return": "address currently approved for the given token ID"
      },
      "isApprovedForAll(address,address)": {
        "details": "Tells whether an operator is approved by a given owner.",
        "params": {
          "operator": "operator address which you want to query the approval of",
          "owner": "owner address which you want to query the approval of"
        },
        "return": "bool whether the given operator is approved by the given owner"
      },
      "isBurner()": {
        "details": "Returns true if the message sender is the burner"
      },
      "isIssuer()": {
        "details": "Returns true if the message sender is the issuer"
      },
      "name()": {
        "details": "Gets the token name.",
        "return": "string representing the token name"
      },
      "ownerOf(uint256)": {
        "details": "Gets the owner of the specified token ID.",
        "params": {
          "tokenId": "uint256 ID of the token to query the owner of"
        },
        "return": "address currently marked as the owner of the given token ID"
      },
      "safeTransferFrom(address,address,uint256)": {
        "details": "Safely transfers the ownership of a given token ID to another address If the target address is a contract, it must implement `onERC721Received`, which is called upon a safe transfer, and return the magic value `bytes4(keccak256(\"onERC721Received(address,address,uint256,bytes)\"))`; otherwise, the transfer is reverted. Requires the msg.sender to be the owner, approved, or operator",
        "params": {
          "from": "current owner of the token",
          "to": "address to receive the ownership of the given token ID",
          "tokenId": "uint256 ID of the token to be transferred"
        }
      },
      "safeTransferFrom(address,address,uint256,bytes)": {
        "details": "Safely transfers the ownership of a given token ID to another address If the target address is a contract, it must implement `onERC721Received`, which is called upon a safe transfer, and return the magic value `bytes4(keccak256(\"onERC721Received(address,address,uint256,bytes)\"))`; otherwise, the transfer is reverted. Requires the msg.sender to be the owner, approved, or operator",
        "params": {
          "_data": "bytes data to send along with a safe transfer check",
          "from": "current owner of the token",
          "to": "address to receive the ownership of the given token ID",
          "tokenId": "uint256 ID of the token to be transferred"
        }
      },
      "setApprovalForAll(address,bool)": {
        "details": "Sets or unsets the approval of a given operator An operator is allowed to transfer all tokens of the sender on their behalf.",
        "params": {
          "approved": "representing the status of the approval to be set",
          "to": "operator address to set the approval"
        }
      },
      "setBurner(address)": {
        "details": "Assigns a new address to act as Burner. Only available to the current Burner address.",
        "params": {
          "_newBurner": "The address of the new Burner"
        }
      },
      "setIssuer(address)": {
        "details": "Assigns a new address to act as Issuer. Only available to the current Issuer address.",
        "params": {
          "_newIssuer": "The address of the new Issuer"
        }
      },
      "supportsInterface(bytes4)": {
        "details": "See `IERC165.supportsInterface`.     * Time complexity O(1), guaranteed to always use less than 30 000 gas."
      },
      "symbol()": {
        "details": "Gets the token symbol.",
        "return": "string representing the token symbol"
      },
      "tokenByIndex(uint256)": {
        "details": "Gets the token ID at a given index of all the tokens in this contract Reverts if the index is greater or equal to the total number of tokens.",
        "params": {
          "index": "uint256 representing the index to be accessed of the tokens list"
        },
        "return": "uint256 token ID at the given index of the tokens list"
      },
      "tokenOfOwnerByIndex(address,uint256)": {
        "details": "Gets the token ID at a given index of the tokens list of the requested owner.",
        "params": {
          "index": "uint256 representing the index to be accessed of the requested tokens list",
          "owner": "address owning the tokens list to be accessed"
        },
        "return": "uint256 token ID at the given index of the tokens list owned by the requested address"
      },
      "tokenURI(uint256)": {
        "details": "Returns an URI for a given token ID. Throws if the token ID does not exist. May return an empty string.",
        "params": {
          "tokenId": "uint256 ID of the token to query"
        }
      },
      "totalSupply()": {
        "details": "Gets the total amount of tokens stored by the contract.",
        "return": "uint256 representing the total amount of tokens"
      },
      "transferFrom(address,address,uint256)": {
        "details": "Transfers the ownership of a given token ID to another address. Usage of this method is discouraged, use `safeTransferFrom` whenever possible. Requires the msg.sender to be the owner, approved, or operator.",
        "params": {
          "from": "current owner of the token",
          "to": "address to receive the ownership of the given token ID",
          "tokenId": "uint256 ID of the token to be transferred"
        }
      }
    }
  },
  "userdoc": {
    "methods": {
      "constructor": "Creates the main TitleToken smart contract instance."
    }
  }
}